:1002470075985053877F53890F438920758BFD75A8
:0C0257008DFDD2ACD2AFD28EE4F5902227
:10020000C2A57F647E00120224D2A57F647E001204
:100210000224C2A57F647E00120224D2A57F647EE0
:0402200000020224B2
:1000B200A294B39203A295B39204A296B39205209E
:1000C200030D20040A2005071202637F02805E20CE
:1000D200046030031C12026C7FC87E0012022412DC
:1000E20002871202007FC87E0012022412027E8062
:1000F2002030052712026C7FC87E001202241202F1
:10010200871202007FC87E00120224120224120209
:10011200757F967E0012022402028712026C7FC84B
:100122007E001202241202871202007FC87E001291
:020132000224A5
:0101340022A8
:03002300020135A2
:10013500C0E0C0F0C083C082C0D075D000C000C090
:0D01450001C002C003C004C005C006C00711
:10015200309805C29885990AE50AB46105120275BC
:100162008026E50AB4640512027E801CE50AB47793
:10017200051202638012E50AB4730512026C80084C
:08018200E50AB47403120287C0
:10018A00D007D006D005D004D003D002D001D000C9
:0B019A00D0D0D082D083D0F0D0E03273
:050003001200B280FBB9
:09026300D290C291D292C2932202
:09026C00C290D291C292D29322F9
:09027500C290D291D292C29322F0
:09027E00D290C291C292D29322E7
:09028700C290C291C292C29322FE
:040290000208000060
:10022400758901758CFC758A18D28CD2AFD2A9C29B
:100234008DE509B507FBE508B506F6E4F508F5090B
:03024400C28C2247
:03000B0002000EE2
:10000E00C0E0C28D758CFC758A180509E509700271
:05001E000508D0E032EE
:1001A500A2A49200A2A59201A2A692023000093053
:1001B50001063002030202873000083001052002E3
:1001C50002801C200008300105300202801D20003D
:1001D50005200202802130000920010620020302C9
:1001E500027520000920010630020302027E30005C
:0A01F5000930010630020312026314
:0101FF0022DD
:03000000020026D5
:0C002600787FE4F6D8FD75812002006DA3
:10003200020003E493A3F8E493A34003F68001F2E1
:1000420008DFF48029E493A3F85407240CC8C333CF
:10005200C4540F4420C8834004F456800146F6DF9E
:10006200E4800B0102040810204080900290E47E9C
:10007200019360BCA3FF543F30E509541FFEE49393
:10008200A360010ECF54C025E060A840B8E493A35A
:10009200FAE493A3F8E493A3C8C582C8CAC583CA85
:1000A200F0A3C8C582C8CAC583CADFE9DEE780BE3D
:010294000069
:00000001FF
